:02000000022BD1
:10000800FF00030E8301C7000A08C6008A017008B2
:10001800A4007108A3007B08A2007C08A1007D0849
:10002800A00002300B05F1007108023A031D2C28CC
:1000380007140B30FB002630FC005D30FD00FD0B83
:100048002328FC0B2328FB0B2328000000008B101F
:100058002408F0002308F1002208FB002108FC0016
:100068002008FD0046088A00470E8300FF0E7F0E19
:0200780009007D
:06007A0000000000080078
:100080000F3083120313FC004730FD00FD0B4628A0
:0A009000FC0B4628000000000800E9
:0E009A00213083120313FD00FD0B51280800D6
:1000A80083120313F801F9011030FC00710DF80DEB
:1000B800F90D7408F8027508031C750FF902031886
:1000C8006C287408F80775080318750FF9070310EA
:0A00D800F00DF10DFC0B5A28080092
:1000E20083120313D61B7728881378288817561B88
:1000F2007C2808137D280817D61A8128881282289E
:100102008816561A86280812872808163A188B2845
:1001120008148C28081088143D208810D6199328BA
:1001220088139428881756199828081399280817AD
:10013200D6189D2888129E2888165618A2280812BA
:10014200A32808163A18A7280814A8280810881403
:100152003D2088103A1CAF284020B0284D200800CE
:0E016200831203133C088A003B088200080049
:1001700083120313D401053054020318C62854080F
:100180005307840020308000D40ABB28540853074A
:1001900084008001D40354085307D5000A30F400CA
:1001A000F5015108F0005208F10054207808F000E1
:1001B0007908F1003030F00755088400700880009D
:1001C0000A30F400F5015108F0005208F100542003
:1001D0007008D1007108D20000307106031DF228AA
:1001E00000307006031DF528F728D403CB2808003B
:1001F000831203133A105108D60071203A140800F4
:10020000710DF80DF90D7408F8027508031C750FCF
:10021000F902F00DF10D0F30FC00710DF80DF90D24
:100220007408701C1929F8027508031C750FF9026F
:100230001E29F80775080318750FF907F00DF10D61
:10024000FC0B0D2970182A297408F8077508031883
:08025000750FF907000008001A
:100258000E3083120313FD00FD0B30290000080047
:1002680083120313FB01FA01F9018030F800F10C45
:10027800F00C031C48297408F90775080318750F52
:10028800FA070318FB0A0310F01F50297408FA072D
:1002980075080318750FFB07FB0CFA0CF90CF80C22
:1002A800031C3B297B08F3007A08F2007908F10067
:0602B8007808F0000800C8
:1002BE0083120313CD01CE014808CF004908D000A8
:1002CE0080304906F00080307002031D7029003026
:1002DE00480203187E290130CD000030CE004808B8
:1002EE00003CCF004908031C013ED001D0024F084C
:1002FE00D1005008D2004A08D300B8200630CB00F7
:10030E000030CC004C08003C031D8F294B08003CEC
:10031E000318AA294B084A07F20001304B02F000DD
:10032E000030031C013E4C02F10070084A078400A5
:10033E000008F00072088400700880000130CB02C3
:10034E00031CCC0389294A088400203080004D0804
:10035E004E040319C829CB01CC014B084A0784006F
:10036E000008203A031DBF29CB0A0319CC0AB42971
:10037E000130CB02031CCC034B084A0784002D30FE
:04038E0080000800E3
:10039200831203139F01C0309F0483161F179F17F8
:1003A20083124808F000F00D7010F00D7010F00D7F
:1003B200701070089F041F142C211F151F1DE329A4
:1003C2000000DF291F101E08F100F00183161E082D
:0803D200F0040030F104080002
:1003DA00831203137408003A031DFC297508003AB6
:1003EA00031DFC29FF30F0007F30F100552A8312EB
:1003FA000313FD01F901F8017108700403190034AF
:10040A0071087506FA00FA1BFD09FB01F51F122A8D
:10041A00F409F509F40A0319F50AF11F192AF00972
:10042A00F109F00A0319F10A71087504FA00FA1BB6
:10043A002E2A00217B18412AFD1F0034F009F109F8
:10044A00F00A0319F10AF809F909F80A0319F90A6D
:10045A000034F51F3D2AF11B392A7108F90070088A
:10046A00F800F101F001212AF101F001F00A00344B
:10047A00F109F009FB0A1E2AF80A0319F90A740895
:10048A007802031D212A75087902031D212AF90120
:10049A00F801F00A0319F10AF11F212A0000FF34BA
:0204AA00080048
:1004AC00B1208A110A128000840ABB0A0319BC0A03
:0804BC00F003031D562A08009D
:1004C400742A803083120313C800872AC030C800FE
:1004D400872A9430C800872AD430C800872A8030FD
:1004E400C800872A831203134808013A0319632AB0
:1004F4004808023A0319682A4808033A03196B2A80
:100504004808043A03196E2A712A4903F00048087E
:10051400F0077008C8007008D60071203A10CB01AB
:100524004B084A07840000080319A02A4B084A070D
:1005340084000008D100F820CB0A922A3A1408005B
:10054400FF3083120313B700FF30B800FF30B90047
:10055400FF309F01C0309F0483161F179F1783121B
:040564001F14080058
:1005680083160313881008100812881208138813BA
:100578008312881008108813081388120812402064
:10058800402040208816081688143D2088104020F6
:1005980088143D208810402088143D208810402071
:1005A800081288143D208810402088143D208810A7
:1005B8008812881788143D20881040208813081650
:1005C80088143D208810081288143D208810402087
:1005D80088143D208810081688143D208810402073
:1005E800081288143D2088108817081788160816DE
:0C05F80088143D20881040203A140800B0
:10060400743083120313A5006530A6006D30A70073
:100614007030A8006530A9007230AA006130AB00C8
:100624007430AC007530AD007230AE006530AF0090
:100634002030B0006930B1007330B2002030B30014
:100644003A30B4002030B500B60183160710831287
:100654000710B422A2220C30D60071200130C80049
:100664000230C9002530CA006222C801C9217008BD
:100674008312C4007108C500F430F4000130F500A1
:100684003421FF30F4000330F500ED217008C4007C
:100694007108C5007008C8007108C9003D30CA005F
:1006A4005F210230C8000230C9003D30CA00622216
:0406B400372B5B2B5A
:02400E00CB2FB6
:00000001FF
